{
  "contractName": "MerkleDistributor",
  "abi": [
    {
      "anonymous": false,
      "inputs": [
        {
          "indexed": false,
          "internalType": "address",
          "name": "account",
          "type": "address"
        },
        {
          "indexed": false,
          "internalType": "address",
          "name": "token",
          "type": "address"
        },
        {
          "indexed": false,
          "internalType": "uint256",
          "name": "amount",
          "type": "uint256"
        }
      ],
      "name": "Claimed",
      "type": "event"
    },
    {
      "inputs": [
        {
          "internalType": "bytes32",
          "name": "",
          "type": "bytes32"
        }
      ],
      "name": "config",
      "outputs": [
        {
          "internalType": "contract IERC20",
          "name": "token",
          "type": "address"
        },
        {
          "internalType": "address",
          "name": "tokensProvider",
          "type": "address"
        },
        {
          "internalType": "uint96",
          "name": "startTime",
          "type": "uint96"
        },
        {
          "internalType": "uint96",
          "name": "endTime",
          "type": "uint96"
        }
      ],
      "stateMutability": "view",
      "type": "function"
    },
    {
      "inputs": [
        {
          "internalType": "bytes32",
          "name": "merkleRoot",
          "type": "bytes32"
        },
        {
          "internalType": "address",
          "name": "token",
          "type": "address"
        },
        {
          "internalType": "address",
          "name": "tokensProvider",
          "type": "address"
        },
        {
          "internalType": "uint96",
          "name": "startTime",
          "type": "uint96"
        },
        {
          "internalType": "uint96",
          "name": "endTime",
          "type": "uint96"
        }
      ],
      "name": "newDistribuition",
      "outputs": [],
      "stateMutability": "nonpayable",
      "type": "function"
    },
    {
      "inputs": [
        {
          "internalType": "bytes32",
          "name": "merkleRoot",
          "type": "bytes32"
        },
        {
          "internalType": "uint256",
          "name": "index",
          "type": "uint256"
        }
      ],
      "name": "isClaimed",
      "outputs": [
        {
          "internalType": "bool",
          "name": "",
          "type": "bool"
        }
      ],
      "stateMutability": "view",
      "type": "function"
    },
    {
      "inputs": [
        {
          "internalType": "uint256",
          "name": "index",
          "type": "uint256"
        },
        {
          "internalType": "address",
          "name": "account",
          "type": "address"
        },
        {
          "internalType": "uint256",
          "name": "amount",
          "type": "uint256"
        },
        {
          "internalType": "bytes32[]",
          "name": "merkleProofs",
          "type": "bytes32[]"
        }
      ],
      "name": "claim",
      "outputs": [],
      "stateMutability": "nonpayable",
      "type": "function"
    }
  ],
  "bytecode": "0x608060405234801561001057600080fd5b50611322806100206000396000f3fe608060405234801561001057600080fd5b506004361061004c5760003560e01c80632e7ba6ef1461005157806385f5276f1461006d578063ae6d77c61461009d578063cc718f76146100b9575b600080fd5b61006b60048036038101906100669190610b7c565b6100ec565b005b61008760048036038101906100829190610b40565b610433565b6040516100949190610f2c565b60405180910390f35b6100b760048036038101906100b29190610ac9565b61049d565b005b6100d360048036038101906100ce9190610aa0565b6107cf565b6040516100e39493929190610f47565b60405180910390f35b600085858560405160200161010393929190610eb8565b6040516020818303038152906040528051906020012090506000610168848480806020026020016040519081016040528093929190818152602001838360200280828437600081840152601f19601f820116905080830192505050505050508361086f565b90504260008083815260200190815260200160002060010160149054906101000a90046bffffffffffffffffffffffff166bffffffffffffffffffffffff161080156101ef57504260008083815260200190815260200160002060020160009054906101000a90046bffffffffffffffffffffffff166bffffffffffffffffffffffff1610155b61022e576040517f08c379a000000000000000000000000000000000000000000000000000000000815260040161022590610fcc565b60405180910390fd5b6102388188610433565b15610278576040517f08c379a000000000000000000000000000000000000000000000000000000000815260040161026f90610f8c565b60405180910390fd5b6102828188610943565b60008082815260200190815260200160002060000160009054906101000a900473ffffffffffffffffffffffffffffffffffffffff1673ffffffffffffffffffffffffffffffffffffffff166323b872dd60008084815260200190815260200160002060010160009054906101000a900473ffffffffffffffffffffffffffffffffffffffff1688886040518463ffffffff1660e01b815260040161032993929190610ef5565b602060405180830381600087803b15801561034357600080fd5b505af1158015610357573d6000803e3d6000fd5b505050506040513d601f19601f8201168201806040525081019061037b9190610a77565b6103ba576040517f08c379a00000000000000000000000000000000000000000000000000000000081526004016103b19061104c565b60405180910390fd5b7ff7a40077ff7a04c7e61f6f26fb13774259ddf1b6bce9ecf26a8276cdd39926838660008084815260200190815260200160002060000160009054906101000a900473ffffffffffffffffffffffffffffffffffffffff168760405161042293929190610ef5565b60405180910390a150505050505050565b60008061010083610444919061109d565b905060006101008461045691906111dd565b9050600080600087815260200190815260200160002060030160008481526020019081526020016000205490506000826001901b9050808183161494505050505092915050565b600073ffffffffffffffffffffffffffffffffffffffff1660008087815260200190815260200160002060000160009054906101000a900473ffffffffffffffffffffffffffffffffffffffff1673ffffffffffffffffffffffffffffffffffffffff1614610541576040517f08c379a000000000000000000000000000000000000000000000000000000000815260040161053890610fac565b60405180910390fd5b6000801b851415610587576040517f08c379a000000000000000000000000000000000000000000000000000000000815260040161057e9061102c565b60405180910390fd5b600073ffffffffffffffffffffffffffffffffffffffff168473ffffffffffffffffffffffffffffffffffffffff1614156105f7576040517f08c379a00000000000000000000000000000000000000000000000000000000081526004016105ee90610fec565b60405180910390fd5b600073ffffffffffffffffffffffffffffffffffffffff168373ffffffffffffffffffffffffffffffffffffffff161415610667576040517f08c379a000000000000000000000000000000000000000000000000000000000815260040161065e9061100c565b60405180910390fd5b806bffffffffffffffffffffffff16826bffffffffffffffffffffffff16106106c5576040517f08c379a00000000000000000000000000000000000000000000000000000000081526004016106bc9061106c565b60405180910390fd5b60008060008781526020019081526020016000209050848160000160006101000a81548173ffffffffffffffffffffffffffffffffffffffff021916908373ffffffffffffffffffffffffffffffffffffffff160217905550838160010160006101000a81548173ffffffffffffffffffffffffffffffffffffffff021916908373ffffffffffffffffffffffffffffffffffffffff160217905550828160010160146101000a8154816bffffffffffffffffffffffff02191690836bffffffffffffffffffffffff160217905550818160020160006101000a8154816bffffffffffffffffffffffff02191690836bffffffffffffffffffffffff160217905550505050505050565b60006020528060005260406000206000915090508060000160009054906101000a900473ffffffffffffffffffffffffffffffffffffffff16908060010160009054906101000a900473ffffffffffffffffffffffffffffffffffffffff16908060010160149054906101000a90046bffffffffffffffffffffffff16908060020160009054906101000a90046bffffffffffffffffffffffff16905084565b600081905060005b835181101561093c5760008482815181106108bb577f4e487b7100000000000000000000000000000000000000000000000000000000600052603260045260246000fd5b602002602001015190508083116108fc5782816040516020016108df929190610e8c565b604051602081830303815290604052805190602001209250610928565b808360405160200161090f929190610e8c565b6040516020818303038152906040528051906020012092505b5080806109349061115c565b915050610877565b5092915050565b600061010082610953919061109d565b905060006101008361096591906111dd565b9050806001901b6000808681526020019081526020016000206003016000848152602001908152602001600020541760008086815260200190815260200160002060030160008481526020019081526020016000208190555050505050565b6000813590506109d381611279565b92915050565b60008083601f8401126109eb57600080fd5b8235905067ffffffffffffffff811115610a0457600080fd5b602083019150836020820283011115610a1c57600080fd5b9250929050565b600081519050610a3281611290565b92915050565b600081359050610a47816112a7565b92915050565b600081359050610a5c816112be565b92915050565b600081359050610a71816112d5565b92915050565b600060208284031215610a8957600080fd5b6000610a9784828501610a23565b91505092915050565b600060208284031215610ab257600080fd5b6000610ac084828501610a38565b91505092915050565b600080600080600060a08688031215610ae157600080fd5b6000610aef88828901610a38565b9550506020610b00888289016109c4565b9450506040610b11888289016109c4565b9350506060610b2288828901610a62565b9250506080610b3388828901610a62565b9150509295509295909350565b60008060408385031215610b5357600080fd5b6000610b6185828601610a38565b9250506020610b7285828601610a4d565b9150509250929050565b600080600080600060808688031215610b9457600080fd5b6000610ba288828901610a4d565b9550506020610bb3888289016109c4565b9450506040610bc488828901610a4d565b935050606086013567ffffffffffffffff811115610be157600080fd5b610bed888289016109d9565b92509250509295509295909350565b610c05816110ce565b82525050565b610c1c610c17826110ce565b6111a5565b82525050565b610c2b816110e0565b82525050565b610c42610c3d826110ec565b6111b7565b82525050565b610c5181611138565b82525050565b6000610c64600f8361108c565b91507f616c726561647920636c61696d656400000000000000000000000000000000006000830152602082019050919050565b6000610ca4601b8361108c565b91507f6d65726b6c65526f6f7420616c726561647920726567697374657200000000006000830152602082019050919050565b6000610ce460188361108c565b91507f6f7574206f662074696d65202f2077726f6e6720726f6f7400000000000000006000830152602082019050919050565b6000610d24600b8361108c565b91507f656d70747920746f6b656e0000000000000000000000000000000000000000006000830152602082019050919050565b6000610d64600e8361108c565b91507f656d7074792070726f76696465720000000000000000000000000000000000006000830152602082019050919050565b6000610da4600a8361108c565b91507f656d70747920726f6f74000000000000000000000000000000000000000000006000830152602082019050919050565b6000610de4600f8361108c565b91507f7472616e73666572206661696c656400000000000000000000000000000000006000830152602082019050919050565b6000610e24600b8361108c565b91507f77726f6e672064617465730000000000000000000000000000000000000000006000830152602082019050919050565b610e6081611116565b82525050565b610e77610e7282611116565b6111d3565b82525050565b610e8681611120565b82525050565b6000610e988285610c31565b602082019150610ea88284610c31565b6020820191508190509392505050565b6000610ec48286610e66565b602082019150610ed48285610c0b565b601482019150610ee48284610e66565b602082019150819050949350505050565b6000606082019050610f0a6000830186610bfc565b610f176020830185610bfc565b610f246040830184610e57565b949350505050565b6000602082019050610f416000830184610c22565b92915050565b6000608082019050610f5c6000830187610c48565b610f696020830186610bfc565b610f766040830185610e7d565b610f836060830184610e7d565b95945050505050565b60006020820190508181036000830152610fa581610c57565b9050919050565b60006020820190508181036000830152610fc581610c97565b9050919050565b60006020820190508181036000830152610fe581610cd7565b9050919050565b6000602082019050818103600083015261100581610d17565b9050919050565b6000602082019050818103600083015261102581610d57565b9050919050565b6000602082019050818103600083015261104581610d97565b9050919050565b6000602082019050818103600083015261106581610dd7565b9050919050565b6000602082019050818103600083015261108581610e17565b9050919050565b600082825260208201905092915050565b60006110a882611116565b91506110b383611116565b9250826110c3576110c261123d565b5b828204905092915050565b60006110d9826110f6565b9050919050565b60008115159050919050565b6000819050919050565b600073ffffffffffffffffffffffffffffffffffffffff82169050919050565b6000819050919050565b60006bffffffffffffffffffffffff82169050919050565b60006111438261114a565b9050919050565b6000611155826110f6565b9050919050565b600061116782611116565b91507fffffffffffffffffffffffffffffffffffffffffffffffffffffffffffffffff82141561119a5761119961120e565b5b600182019050919050565b60006111b0826111c1565b9050919050565b6000819050919050565b60006111cc8261126c565b9050919050565b6000819050919050565b60006111e882611116565b91506111f383611116565b9250826112035761120261123d565b5b828206905092915050565b7f4e487b7100000000000000000000000000000000000000000000000000000000600052601160045260246000fd5b7f4e487b7100000000000000000000000000000000000000000000000000000000600052601260045260246000fd5b60008160601b9050919050565b611282816110ce565b811461128d57600080fd5b50565b611299816110e0565b81146112a457600080fd5b50565b6112b0816110ec565b81146112bb57600080fd5b50565b6112c781611116565b81146112d257600080fd5b50565b6112de81611120565b81146112e957600080fd5b5056fea2646970667358221220188cdc479879fc83023ed9bd8ad9e1234c80e0903978eaca4bf77806b17afadb64736f6c63430008000033",
  "immutableReferences": {},
  "source": "// SPDX-License-Identifier: MIT\npragma solidity 0.8.0;\n\nimport \"./libraries/MerkleProofLib.sol\";\nimport \"./interfaces/IMerkleDrop.sol\";\nimport \"./interfaces/IERC20.sol\";\n\ncontract MerkleDistributor is IMerkleDrop {\n\n    struct Config {\n        IERC20 token;\n        address tokensProvider;\n        uint96 startTime;\n        uint96 endTime;\n        mapping(uint256 => uint256) claimed;\n    }\n\n    mapping(bytes32 => Config) public config;\n\n    function newDistribuition(\n        bytes32 merkleRoot,\n        address token,\n        address tokensProvider,\n        uint96 startTime,\n        uint96 endTime\n    )\n        external\n        override\n    {\n        require(address(config[merkleRoot].token) == address(0), \"merkleRoot already register\");\n        require(merkleRoot != bytes32(0), \"empty root\");\n        require(token != address(0), \"empty token\");\n        require(tokensProvider != address(0), \"empty provider\");\n        require(startTime < endTime, \"wrong dates\");\n\n        Config storage _config = config[merkleRoot];\n        _config.token = IERC20(token);\n        _config.tokensProvider = tokensProvider;\n        _config.startTime = startTime;\n        _config.endTime = endTime;\n    }\n\n    function isClaimed(bytes32 merkleRoot, uint256 index) public view override returns (bool) {\n        uint256 claimedWordIndex = index / 256;\n        uint256 claimedBitIndex = index % 256;\n        uint256 claimedWord = config[merkleRoot].claimed[claimedWordIndex];\n        uint256 mask = (1 << claimedBitIndex);\n        return claimedWord & mask == mask;\n    }\n\n    function _setClaimed(bytes32 merkleRoot, uint256 index) private {\n        uint256 claimedWordIndex = index / 256;\n        uint256 claimedBitIndex = index % 256;\n        config[merkleRoot].claimed[claimedWordIndex] = config[merkleRoot].claimed[claimedWordIndex] | (1 << claimedBitIndex);\n    }\n\n    function claim(uint256 index, address account, uint256 amount, bytes32[] calldata merkleProofs) external override {\n        bytes32 leaf = keccak256(abi.encodePacked(index, account, amount));\n        bytes32 merkleRoot = MerkleProof.getMerkleRoot(merkleProofs, leaf);\n\n        require(\n            config[merkleRoot].startTime < block.timestamp\n            && config[merkleRoot].endTime >= block.timestamp\n            ,\"out of time / wrong root\"\n        );\n\n        require(!isClaimed(merkleRoot, index), \"already claimed\");\n        _setClaimed(merkleRoot, index);\n\n        require(\n            config[merkleRoot].token.transferFrom(\n                config[merkleRoot].tokensProvider,\n                account,\n                amount\n            )\n        , \"transfer failed\");\n        emit Claimed(account, address(config[merkleRoot].token), amount);\n    }\n}\n",
  "sourcePath": "/Users/logic/ethereum/merkle-drop/contracts/MerkleDistributor.sol",
  "compiler": {
    "name": "solc",
    "version": "0.8.0+commit.c7dfd78e.Emscripten.clang"
  },
  "schemaVersion": "3.4.1",
  "updatedAt": "2021-05-16T11:28:19.393Z",
  "devdoc": {
    "kind": "dev",
    "methods": {},
    "version": 1
  },
  "userdoc": {
    "kind": "user",
    "methods": {},
    "version": 1
  }
}