{
  "contractName": "MerkleDistributor",
  "abi": [
    {
      "inputs": [
        {
          "internalType": "bytes32",
          "name": "",
          "type": "bytes32"
        }
      ],
      "name": "config",
      "outputs": [
        {
          "internalType": "contract IERC20",
          "name": "token",
          "type": "address"
        },
        {
          "internalType": "address",
          "name": "tokensProvider",
          "type": "address"
        },
        {
          "internalType": "uint96",
          "name": "startDate",
          "type": "uint96"
        },
        {
          "internalType": "uint96",
          "name": "endDate",
          "type": "uint96"
        }
      ],
      "stateMutability": "view",
      "type": "function"
    },
    {
      "inputs": [
        {
          "internalType": "bytes32",
          "name": "merkleRoot",
          "type": "bytes32"
        },
        {
          "internalType": "address",
          "name": "token",
          "type": "address"
        },
        {
          "internalType": "address",
          "name": "tokensProvider",
          "type": "address"
        },
        {
          "internalType": "uint96",
          "name": "startDate",
          "type": "uint96"
        },
        {
          "internalType": "uint96",
          "name": "endDate",
          "type": "uint96"
        }
      ],
      "name": "newDistribuition",
      "outputs": [],
      "stateMutability": "nonpayable",
      "type": "function"
    },
    {
      "inputs": [
        {
          "internalType": "bytes32",
          "name": "merkleRoot",
          "type": "bytes32"
        },
        {
          "internalType": "uint256",
          "name": "index",
          "type": "uint256"
        }
      ],
      "name": "isClaimed",
      "outputs": [
        {
          "internalType": "bool",
          "name": "",
          "type": "bool"
        }
      ],
      "stateMutability": "view",
      "type": "function"
    },
    {
      "inputs": [
        {
          "internalType": "uint256",
          "name": "index",
          "type": "uint256"
        },
        {
          "internalType": "address",
          "name": "account",
          "type": "address"
        },
        {
          "internalType": "uint256",
          "name": "amount",
          "type": "uint256"
        },
        {
          "internalType": "bytes32[]",
          "name": "merkleProofs",
          "type": "bytes32[]"
        }
      ],
      "name": "claim",
      "outputs": [],
      "stateMutability": "nonpayable",
      "type": "function"
    }
  ],
  "bytecode": "0x608060405234801561001057600080fd5b5061106b806100206000396000f3fe608060405234801561001057600080fd5b506004361061004c5760003560e01c80632e7ba6ef1461005157806385f5276f1461006d578063ae6d77c61461009d578063cc718f76146100b9575b600080fd5b61006b600480360381019061006691906109e5565b6100ec565b005b610087600480360381019061008291906109a9565b6103c2565b6040516100949190610cd5565b60405180910390f35b6100b760048036038101906100b29190610932565b61042c565b005b6100d360048036038101906100ce9190610909565b610638565b6040516100e39493929190610cf0565b60405180910390f35b600085858560405160200161010393929190610c61565b6040516020818303038152906040528051906020012090506000610168848480806020026020016040519081016040528093929190818152602001838360200280828437600081840152601f19601f82011690508083019250505050505050836106d8565b90504260008083815260200190815260200160002060010160149054906101000a90046bffffffffffffffffffffffff166bffffffffffffffffffffffff161080156101ee57504260008083815260200190815260200160002060020160009054906101000a90046bffffffffffffffffffffffff166bffffffffffffffffffffffff16115b61022d576040517f08c379a000000000000000000000000000000000000000000000000000000000815260040161022490610d55565b60405180910390fd5b61023781886103c2565b15610277576040517f08c379a000000000000000000000000000000000000000000000000000000000815260040161026e90610d35565b60405180910390fd5b61028181886107ac565b60008082815260200190815260200160002060000160009054906101000a900473ffffffffffffffffffffffffffffffffffffffff1673ffffffffffffffffffffffffffffffffffffffff166323b872dd60008084815260200190815260200160002060010160009054906101000a900473ffffffffffffffffffffffffffffffffffffffff1688886040518463ffffffff1660e01b815260040161032893929190610c9e565b602060405180830381600087803b15801561034257600080fd5b505af1158015610356573d6000803e3d6000fd5b505050506040513d601f19601f8201168201806040525081019061037a91906108e0565b6103b9576040517f08c379a00000000000000000000000000000000000000000000000000000000081526004016103b090610d95565b60405180910390fd5b50505050505050565b600080610100836103d39190610de6565b90506000610100846103e59190610f26565b9050600080600087815260200190815260200160002060030160008481526020019081526020016000205490506000826001901b9050808183161494505050505092915050565b600073ffffffffffffffffffffffffffffffffffffffff1660008087815260200190815260200160002060000160009054906101000a900473ffffffffffffffffffffffffffffffffffffffff1673ffffffffffffffffffffffffffffffffffffffff16146104d0576040517f08c379a00000000000000000000000000000000000000000000000000000000081526004016104c790610d75565b60405180910390fd5b806bffffffffffffffffffffffff16826bffffffffffffffffffffffff161061052e576040517f08c379a000000000000000000000000000000000000000000000000000000000815260040161052590610db5565b60405180910390fd5b60008060008781526020019081526020016000209050848160000160006101000a81548173ffffffffffffffffffffffffffffffffffffffff021916908373ffffffffffffffffffffffffffffffffffffffff160217905550838160010160006101000a81548173ffffffffffffffffffffffffffffffffffffffff021916908373ffffffffffffffffffffffffffffffffffffffff160217905550828160010160146101000a8154816bffffffffffffffffffffffff02191690836bffffffffffffffffffffffff160217905550818160020160006101000a8154816bffffffffffffffffffffffff02191690836bffffffffffffffffffffffff160217905550505050505050565b60006020528060005260406000206000915090508060000160009054906101000a900473ffffffffffffffffffffffffffffffffffffffff16908060010160009054906101000a900473ffffffffffffffffffffffffffffffffffffffff16908060010160149054906101000a90046bffffffffffffffffffffffff16908060020160009054906101000a90046bffffffffffffffffffffffff16905084565b600081905060005b83518110156107a5576000848281518110610724577f4e487b7100000000000000000000000000000000000000000000000000000000600052603260045260246000fd5b60200260200101519050808311610765578281604051602001610748929190610c35565b604051602081830303815290604052805190602001209250610791565b8083604051602001610778929190610c35565b6040516020818303038152906040528051906020012092505b50808061079d90610ea5565b9150506106e0565b5092915050565b6000610100826107bc9190610de6565b90506000610100836107ce9190610f26565b9050806001901b6000808681526020019081526020016000206003016000848152602001908152602001600020541760008086815260200190815260200160002060030160008481526020019081526020016000208190555050505050565b60008135905061083c81610fc2565b92915050565b60008083601f84011261085457600080fd5b8235905067ffffffffffffffff81111561086d57600080fd5b60208301915083602082028301111561088557600080fd5b9250929050565b60008151905061089b81610fd9565b92915050565b6000813590506108b081610ff0565b92915050565b6000813590506108c581611007565b92915050565b6000813590506108da8161101e565b92915050565b6000602082840312156108f257600080fd5b60006109008482850161088c565b91505092915050565b60006020828403121561091b57600080fd5b6000610929848285016108a1565b91505092915050565b600080600080600060a0868803121561094a57600080fd5b6000610958888289016108a1565b95505060206109698882890161082d565b945050604061097a8882890161082d565b935050606061098b888289016108cb565b925050608061099c888289016108cb565b9150509295509295909350565b600080604083850312156109bc57600080fd5b60006109ca858286016108a1565b92505060206109db858286016108b6565b9150509250929050565b6000806000806000608086880312156109fd57600080fd5b6000610a0b888289016108b6565b9550506020610a1c8882890161082d565b9450506040610a2d888289016108b6565b935050606086013567ffffffffffffffff811115610a4a57600080fd5b610a5688828901610842565b92509250509295509295909350565b610a6e81610e17565b82525050565b610a85610a8082610e17565b610eee565b82525050565b610a9481610e29565b82525050565b610aab610aa682610e35565b610f00565b82525050565b610aba81610e81565b82525050565b6000610acd600f83610dd5565b91507f616c726561647920636c61696d656400000000000000000000000000000000006000830152602082019050919050565b6000610b0d601e83610dd5565b91507f6f7574206f662074696d65202f2077726f6e67206d65726b6c655472656500006000830152602082019050919050565b6000610b4d601b83610dd5565b91507f6d65726b6c65526f6f7420616c726561647920726567697374657200000000006000830152602082019050919050565b6000610b8d600f83610dd5565b91507f7472616e73666572206661696c656400000000000000000000000000000000006000830152602082019050919050565b6000610bcd600b83610dd5565b91507f77726f6e672064617465730000000000000000000000000000000000000000006000830152602082019050919050565b610c0981610e5f565b82525050565b610c20610c1b82610e5f565b610f1c565b82525050565b610c2f81610e69565b82525050565b6000610c418285610a9a565b602082019150610c518284610a9a565b6020820191508190509392505050565b6000610c6d8286610c0f565b602082019150610c7d8285610a74565b601482019150610c8d8284610c0f565b602082019150819050949350505050565b6000606082019050610cb36000830186610a65565b610cc06020830185610a65565b610ccd6040830184610c00565b949350505050565b6000602082019050610cea6000830184610a8b565b92915050565b6000608082019050610d056000830187610ab1565b610d126020830186610a65565b610d1f6040830185610c26565b610d2c6060830184610c26565b95945050505050565b60006020820190508181036000830152610d4e81610ac0565b9050919050565b60006020820190508181036000830152610d6e81610b00565b9050919050565b60006020820190508181036000830152610d8e81610b40565b9050919050565b60006020820190508181036000830152610dae81610b80565b9050919050565b60006020820190508181036000830152610dce81610bc0565b9050919050565b600082825260208201905092915050565b6000610df182610e5f565b9150610dfc83610e5f565b925082610e0c57610e0b610f86565b5b828204905092915050565b6000610e2282610e3f565b9050919050565b60008115159050919050565b6000819050919050565b600073ffffffffffffffffffffffffffffffffffffffff82169050919050565b6000819050919050565b60006bffffffffffffffffffffffff82169050919050565b6000610e8c82610e93565b9050919050565b6000610e9e82610e3f565b9050919050565b6000610eb082610e5f565b91507fffffffffffffffffffffffffffffffffffffffffffffffffffffffffffffffff821415610ee357610ee2610f57565b5b600182019050919050565b6000610ef982610f0a565b9050919050565b6000819050919050565b6000610f1582610fb5565b9050919050565b6000819050919050565b6000610f3182610e5f565b9150610f3c83610e5f565b925082610f4c57610f4b610f86565b5b828206905092915050565b7f4e487b7100000000000000000000000000000000000000000000000000000000600052601160045260246000fd5b7f4e487b7100000000000000000000000000000000000000000000000000000000600052601260045260246000fd5b60008160601b9050919050565b610fcb81610e17565b8114610fd657600080fd5b50565b610fe281610e29565b8114610fed57600080fd5b50565b610ff981610e35565b811461100457600080fd5b50565b61101081610e5f565b811461101b57600080fd5b50565b61102781610e69565b811461103257600080fd5b5056fea2646970667358221220b75454dc4fdc2dd3078d28b1000d7c7a35ca6a69d4ba4b5139fed51e05a75a5764736f6c63430008000033",
  "immutableReferences": {},
  "source": "// SPDX-License-Identifier: MIT\npragma solidity 0.8.0;\n\nimport \"./libraries/MerkleProofLib.sol\";\nimport \"./interfaces/IMerkleDrop.sol\";\nimport \"./interfaces/IERC20.sol\";\n\ncontract MerkleDistributor is IMerkleDrop {\n\n    struct Config {\n        IERC20 token;\n        address tokensProvider;\n        uint96 startDate;\n        uint96 endDate;\n        mapping(uint256 => uint256) claimed;\n    }\n\n    mapping(bytes32 => Config) public config;\n\n    function newDistribuition(\n        bytes32 merkleRoot,\n        address token,\n        address tokensProvider,\n        uint96 startDate,\n        uint96 endDate\n    )\n        external\n        override\n    {\n\n        require(address(config[merkleRoot].token) == address(0), \"merkleRoot already register\");\n        require(startDate < endDate, \"wrong dates\");\n\n        Config storage _config = config[merkleRoot];\n        _config.token = IERC20(token);\n        _config.tokensProvider = tokensProvider;\n        _config.startDate = startDate;\n        _config.endDate = endDate;\n    }\n\n    function isClaimed(bytes32 merkleRoot, uint256 index) public view override returns (bool) {\n        uint256 claimedWordIndex = index / 256;\n        uint256 claimedBitIndex = index % 256;\n        uint256 claimedWord = config[merkleRoot].claimed[claimedWordIndex];\n        uint256 mask = (1 << claimedBitIndex);\n        return claimedWord & mask == mask;\n    }\n\n    function _setClaimed(bytes32 merkleRoot, uint256 index) private {\n        uint256 claimedWordIndex = index / 256;\n        uint256 claimedBitIndex = index % 256;\n        config[merkleRoot].claimed[claimedWordIndex] = config[merkleRoot].claimed[claimedWordIndex] | (1 << claimedBitIndex);\n    }\n\n    function claim(uint256 index, address account, uint256 amount, bytes32[] calldata merkleProofs) external override {\n        bytes32 leaf = keccak256(abi.encodePacked(index, account, amount));\n        bytes32 merkleRoot = MerkleProof.getMerkleRoot(merkleProofs, leaf);\n\n        require(\n            config[merkleRoot].startDate < block.timestamp\n            && config[merkleRoot].endDate > block.timestamp\n            ,\"out of time / wrong merkleTree\"\n        );\n\n        require(!isClaimed(merkleRoot, index), \"already claimed\");\n        _setClaimed(merkleRoot, index);\n\n        require(\n            config[merkleRoot].token.transferFrom(\n                config[merkleRoot].tokensProvider,\n                account,\n                amount\n            )\n        , \"transfer failed\");\n    }\n}\n",
  "sourcePath": "/Users/logic/ethereum/merkle-drop/contracts/MerkleDistributor.sol",
  "compiler": {
    "name": "solc",
    "version": "0.8.0+commit.c7dfd78e.Emscripten.clang"
  },
  "schemaVersion": "3.4.1",
  "updatedAt": "2021-05-12T20:55:58.809Z",
  "devdoc": {
    "kind": "dev",
    "methods": {},
    "version": 1
  },
  "userdoc": {
    "kind": "user",
    "methods": {},
    "version": 1
  }
}