{
  "contractName": "Waterfall",
  "abi": [
    {
      "anonymous": false,
      "inputs": [
        {
          "indexed": false,
          "internalType": "address",
          "name": "account",
          "type": "address"
        },
        {
          "indexed": false,
          "internalType": "address",
          "name": "token",
          "type": "address"
        },
        {
          "indexed": false,
          "internalType": "uint256",
          "name": "amount",
          "type": "uint256"
        }
      ],
      "name": "Claimed",
      "type": "event"
    },
    {
      "anonymous": false,
      "inputs": [
        {
          "indexed": true,
          "internalType": "address",
          "name": "sender",
          "type": "address"
        },
        {
          "indexed": true,
          "internalType": "address",
          "name": "token",
          "type": "address"
        },
        {
          "indexed": true,
          "internalType": "bytes32",
          "name": "merkleRoot",
          "type": "bytes32"
        },
        {
          "indexed": false,
          "internalType": "uint96",
          "name": "startTime",
          "type": "uint96"
        },
        {
          "indexed": false,
          "internalType": "uint96",
          "name": "endTime",
          "type": "uint96"
        }
      ],
      "name": "NewDistribuition",
      "type": "event"
    },
    {
      "inputs": [
        {
          "internalType": "bytes32",
          "name": "",
          "type": "bytes32"
        }
      ],
      "name": "config",
      "outputs": [
        {
          "internalType": "contract IERC20",
          "name": "token",
          "type": "address"
        },
        {
          "internalType": "uint96",
          "name": "startTime",
          "type": "uint96"
        },
        {
          "internalType": "address",
          "name": "tokensProvider",
          "type": "address"
        },
        {
          "internalType": "uint96",
          "name": "endTime",
          "type": "uint96"
        }
      ],
      "stateMutability": "view",
      "type": "function"
    },
    {
      "inputs": [
        {
          "internalType": "bytes32",
          "name": "merkleRoot",
          "type": "bytes32"
        },
        {
          "internalType": "address",
          "name": "token",
          "type": "address"
        },
        {
          "internalType": "uint96",
          "name": "startTime",
          "type": "uint96"
        },
        {
          "internalType": "uint96",
          "name": "endTime",
          "type": "uint96"
        }
      ],
      "name": "newDistribuition",
      "outputs": [],
      "stateMutability": "nonpayable",
      "type": "function"
    },
    {
      "inputs": [
        {
          "internalType": "bytes32",
          "name": "merkleRoot",
          "type": "bytes32"
        },
        {
          "internalType": "uint256",
          "name": "index",
          "type": "uint256"
        }
      ],
      "name": "isClaimed",
      "outputs": [
        {
          "internalType": "bool",
          "name": "",
          "type": "bool"
        }
      ],
      "stateMutability": "view",
      "type": "function"
    },
    {
      "inputs": [
        {
          "internalType": "uint256",
          "name": "index",
          "type": "uint256"
        },
        {
          "internalType": "address",
          "name": "account",
          "type": "address"
        },
        {
          "internalType": "uint256",
          "name": "amount",
          "type": "uint256"
        },
        {
          "internalType": "bytes32[]",
          "name": "merkleProofs",
          "type": "bytes32[]"
        }
      ],
      "name": "claim",
      "outputs": [],
      "stateMutability": "nonpayable",
      "type": "function"
    }
  ],
  "bytecode": "0x608060405234801561001057600080fd5b50611394806100206000396000f3fe608060405234801561001057600080fd5b506004361061004c5760003560e01c80632e7ba6ef1461005157806378e05f921461006d57806385f5276f14610089578063cc718f76146100b9575b600080fd5b61006b60048036038101906100669190610a98565b6100ec565b005b61008760048036038101906100829190610b9a565b610433565b005b6100a3600480360381019061009e9190610c01565b61075c565b6040516100b09190610c5c565b60405180910390f35b6100d360048036038101906100ce9190610c77565b6107c6565b6040516100e39493929190610d21565b60405180910390f35b600085858560405160200161010393929190610dcf565b6040516020818303038152906040528051906020012090506000610168848480806020026020016040519081016040528093929190818152602001838360200280828437600081840152601f19601f8201169050808301925050505050505083610866565b90504260008083815260200190815260200160002060000160149054906101000a90046bffffffffffffffffffffffff166bffffffffffffffffffffffff161080156101ef57504260008083815260200190815260200160002060010160149054906101000a90046bffffffffffffffffffffffff166bffffffffffffffffffffffff1610155b61022e576040517f08c379a000000000000000000000000000000000000000000000000000000000815260040161022590610e69565b60405180910390fd5b610238818861075c565b15610278576040517f08c379a000000000000000000000000000000000000000000000000000000000815260040161026f90610ed5565b60405180910390fd5b6102828188610914565b60008082815260200190815260200160002060000160009054906101000a900473ffffffffffffffffffffffffffffffffffffffff1673ffffffffffffffffffffffffffffffffffffffff166323b872dd60008084815260200190815260200160002060010160009054906101000a900473ffffffffffffffffffffffffffffffffffffffff1688886040518463ffffffff1660e01b815260040161032993929190610f04565b602060405180830381600087803b15801561034357600080fd5b505af1158015610357573d6000803e3d6000fd5b505050506040513d601f19601f8201168201806040525081019061037b9190610f67565b6103ba576040517f08c379a00000000000000000000000000000000000000000000000000000000081526004016103b190610fe0565b60405180910390fd5b7ff7a40077ff7a04c7e61f6f26fb13774259ddf1b6bce9ecf26a8276cdd39926838660008084815260200190815260200160002060000160009054906101000a900473ffffffffffffffffffffffffffffffffffffffff168760405161042293929190610f04565b60405180910390a150505050505050565b600073ffffffffffffffffffffffffffffffffffffffff1660008086815260200190815260200160002060000160009054906101000a900473ffffffffffffffffffffffffffffffffffffffff1673ffffffffffffffffffffffffffffffffffffffff16146104d7576040517f08c379a00000000000000000000000000000000000000000000000000000000081526004016104ce9061104c565b60405180910390fd5b6000801b84141561051d576040517f08c379a0000000000000000000000000000000000000000000000000000000008152600401610514906110b8565b60405180910390fd5b600073ffffffffffffffffffffffffffffffffffffffff168373ffffffffffffffffffffffffffffffffffffffff16141561058d576040517f08c379a000000000000000000000000000000000000000000000000000000000815260040161058490611124565b60405180910390fd5b806bffffffffffffffffffffffff16826bffffffffffffffffffffffff16106105eb576040517f08c379a00000000000000000000000000000000000000000000000000000000081526004016105e290611190565b60405180910390fd5b60008060008681526020019081526020016000209050838160000160006101000a81548173ffffffffffffffffffffffffffffffffffffffff021916908373ffffffffffffffffffffffffffffffffffffffff160217905550338160010160006101000a81548173ffffffffffffffffffffffffffffffffffffffff021916908373ffffffffffffffffffffffffffffffffffffffff160217905550828160000160146101000a8154816bffffffffffffffffffffffff02191690836bffffffffffffffffffffffff160217905550818160010160146101000a8154816bffffffffffffffffffffffff02191690836bffffffffffffffffffffffff160217905550848473ffffffffffffffffffffffffffffffffffffffff163373ffffffffffffffffffffffffffffffffffffffff167f92774e3278811debb825bcf7a73c2fa3a374358460e98d82891d42c23b4bf320868660405161074d9291906111b0565b60405180910390a45050505050565b6000806101008361076d9190611237565b905060006101008461077f9190611268565b9050600080600087815260200190815260200160002060020160008481526020019081526020016000205490506000826001901b9050808183161494505050505092915050565b60006020528060005260406000206000915090508060000160009054906101000a900473ffffffffffffffffffffffffffffffffffffffff16908060000160149054906101000a90046bffffffffffffffffffffffff16908060010160009054906101000a900473ffffffffffffffffffffffffffffffffffffffff16908060010160149054906101000a90046bffffffffffffffffffffffff16905084565b600081905060005b835181101561090d57600084828151811061088c5761088b611299565b5b602002602001015190508083116108cd5782816040516020016108b09291906112e9565b6040516020818303038152906040528051906020012092506108f9565b80836040516020016108e09291906112e9565b6040516020818303038152906040528051906020012092505b50808061090590611315565b91505061086e565b5092915050565b6000610100826109249190611237565b90506000610100836109369190611268565b9050806001901b6000808681526020019081526020016000206002016000848152602001908152602001600020541760008086815260200190815260200160002060020160008481526020019081526020016000208190555050505050565b600080fd5b600080fd5b6000819050919050565b6109b28161099f565b81146109bd57600080fd5b50565b6000813590506109cf816109a9565b92915050565b600073ffffffffffffffffffffffffffffffffffffffff82169050919050565b6000610a00826109d5565b9050919050565b610a10816109f5565b8114610a1b57600080fd5b50565b600081359050610a2d81610a07565b92915050565b600080fd5b600080fd5b600080fd5b60008083601f840112610a5857610a57610a33565b5b8235905067ffffffffffffffff811115610a7557610a74610a38565b5b602083019150836020820283011115610a9157610a90610a3d565b5b9250929050565b600080600080600060808688031215610ab457610ab3610995565b5b6000610ac2888289016109c0565b9550506020610ad388828901610a1e565b9450506040610ae4888289016109c0565b935050606086013567ffffffffffffffff811115610b0557610b0461099a565b5b610b1188828901610a42565b92509250509295509295909350565b6000819050919050565b610b3381610b20565b8114610b3e57600080fd5b50565b600081359050610b5081610b2a565b92915050565b60006bffffffffffffffffffffffff82169050919050565b610b7781610b56565b8114610b8257600080fd5b50565b600081359050610b9481610b6e565b92915050565b60008060008060808587031215610bb457610bb3610995565b5b6000610bc287828801610b41565b9450506020610bd387828801610a1e565b9350506040610be487828801610b85565b9250506060610bf587828801610b85565b91505092959194509250565b60008060408385031215610c1857610c17610995565b5b6000610c2685828601610b41565b9250506020610c37858286016109c0565b9150509250929050565b60008115159050919050565b610c5681610c41565b82525050565b6000602082019050610c716000830184610c4d565b92915050565b600060208284031215610c8d57610c8c610995565b5b6000610c9b84828501610b41565b91505092915050565b6000819050919050565b6000610cc9610cc4610cbf846109d5565b610ca4565b6109d5565b9050919050565b6000610cdb82610cae565b9050919050565b6000610ced82610cd0565b9050919050565b610cfd81610ce2565b82525050565b610d0c81610b56565b82525050565b610d1b816109f5565b82525050565b6000608082019050610d366000830187610cf4565b610d436020830186610d03565b610d506040830185610d12565b610d5d6060830184610d03565b95945050505050565b6000819050919050565b610d81610d7c8261099f565b610d66565b82525050565b60008160601b9050919050565b6000610d9f82610d87565b9050919050565b6000610db182610d94565b9050919050565b610dc9610dc4826109f5565b610da6565b82525050565b6000610ddb8286610d70565b602082019150610deb8285610db8565b601482019150610dfb8284610d70565b602082019150819050949350505050565b600082825260208201905092915050565b7f6f7574206f662074696d65202f2077726f6e6720726f6f740000000000000000600082015250565b6000610e53601883610e0c565b9150610e5e82610e1d565b602082019050919050565b60006020820190508181036000830152610e8281610e46565b9050919050565b7f616c726561647920636c61696d65640000000000000000000000000000000000600082015250565b6000610ebf600f83610e0c565b9150610eca82610e89565b602082019050919050565b60006020820190508181036000830152610eee81610eb2565b9050919050565b610efe8161099f565b82525050565b6000606082019050610f196000830186610d12565b610f266020830185610d12565b610f336040830184610ef5565b949350505050565b610f4481610c41565b8114610f4f57600080fd5b50565b600081519050610f6181610f3b565b92915050565b600060208284031215610f7d57610f7c610995565b5b6000610f8b84828501610f52565b91505092915050565b7f7472616e73666572206661696c65640000000000000000000000000000000000600082015250565b6000610fca600f83610e0c565b9150610fd582610f94565b602082019050919050565b60006020820190508181036000830152610ff981610fbd565b9050919050565b7f6d65726b6c65526f6f7420616c72656164792072656769737465720000000000600082015250565b6000611036601b83610e0c565b915061104182611000565b602082019050919050565b6000602082019050818103600083015261106581611029565b9050919050565b7f656d70747920726f6f7400000000000000000000000000000000000000000000600082015250565b60006110a2600a83610e0c565b91506110ad8261106c565b602082019050919050565b600060208201905081810360008301526110d181611095565b9050919050565b7f656d70747920746f6b656e000000000000000000000000000000000000000000600082015250565b600061110e600b83610e0c565b9150611119826110d8565b602082019050919050565b6000602082019050818103600083015261113d81611101565b9050919050565b7f77726f6e67206461746573000000000000000000000000000000000000000000600082015250565b600061117a600b83610e0c565b915061118582611144565b602082019050919050565b600060208201905081810360008301526111a98161116d565b9050919050565b60006040820190506111c56000830185610d03565b6111d26020830184610d03565b9392505050565b7f4e487b7100000000000000000000000000000000000000000000000000000000600052601260045260246000fd5b7f4e487b7100000000000000000000000000000000000000000000000000000000600052601160045260246000fd5b60006112428261099f565b915061124d8361099f565b92508261125d5761125c6111d9565b5b828204905092915050565b60006112738261099f565b915061127e8361099f565b92508261128e5761128d6111d9565b5b828206905092915050565b7f4e487b7100000000000000000000000000000000000000000000000000000000600052603260045260246000fd5b6000819050919050565b6112e36112de82610b20565b6112c8565b82525050565b60006112f582856112d2565b60208201915061130582846112d2565b6020820191508190509392505050565b60006113208261099f565b91507fffffffffffffffffffffffffffffffffffffffffffffffffffffffffffffffff82141561135357611352611208565b5b60018201905091905056fea264697066735822122099db57ed159f3aecec69e38ba78dd714cb560d9d0729c37834bdd5f0f983850264736f6c63430008090033",
  "immutableReferences": {},
  "source": "// SPDX-License-Identifier: MIT\npragma solidity 0.8.9;\n\nimport \"./libraries/MerkleProofLib.sol\";\nimport \"./interfaces/IWaterfall.sol\";\nimport \"./interfaces/IERC20.sol\";\n\n/**\n * @dev Waterfall implementation.\n *\n * @author Nuno Axe\n *\n */\ncontract Waterfall is IWaterfall {\n\n    struct Config {\n        IERC20 token;\n        uint96 startTime;\n        address tokensProvider;\n        uint96 endTime;\n        mapping(uint256 => uint256) claimed;\n    }\n\n    // @dev Config for the merkleRoot.\n    mapping(bytes32 => Config) public config;\n\n    // @dev IWaterfall.newDistribuition implementation.\n    function newDistribuition(\n        bytes32 merkleRoot,\n        address token,\n        uint96 startTime,\n        uint96 endTime\n    )\n        external\n        override\n    {\n        require(address(config[merkleRoot].token) == address(0), \"merkleRoot already register\");\n        require(merkleRoot != bytes32(0), \"empty root\");\n        require(token != address(0), \"empty token\");\n        require(startTime < endTime, \"wrong dates\");\n\n        Config storage _config = config[merkleRoot];\n        _config.token = IERC20(token);\n        _config.tokensProvider = msg.sender;\n        _config.startTime = startTime;\n        _config.endTime = endTime;\n        emit NewDistribuition(msg.sender, token, merkleRoot, startTime, endTime);\n    }\n\n    // @dev IWaterfall.isClaimed implementation.\n    function isClaimed(bytes32 merkleRoot, uint256 index) public view override returns (bool) {\n        uint256 claimedWordIndex = index / 256;\n        uint256 claimedBitIndex = index % 256;\n        uint256 claimedWord = config[merkleRoot].claimed[claimedWordIndex];\n        uint256 mask = (1 << claimedBitIndex);\n        return claimedWord & mask == mask;\n    }\n\n    function _setClaimed(bytes32 merkleRoot, uint256 index) private {\n        uint256 claimedWordIndex = index / 256;\n        uint256 claimedBitIndex = index % 256;\n        config[merkleRoot].claimed[claimedWordIndex] = config[merkleRoot].claimed[claimedWordIndex] | (1 << claimedBitIndex);\n    }\n\n    // @dev IWaterfall.claim implementation.\n    function claim(uint256 index, address account, uint256 amount, bytes32[] calldata merkleProofs) external override {\n        bytes32 leaf = keccak256(abi.encodePacked(index, account, amount));\n        bytes32 merkleRoot = MerkleProof.getMerkleRoot(merkleProofs, leaf);\n\n        require(\n            config[merkleRoot].startTime < block.timestamp\n            && config[merkleRoot].endTime >= block.timestamp\n            ,\"out of time / wrong root\"\n        );\n\n        require(!isClaimed(merkleRoot, index), \"already claimed\");\n        _setClaimed(merkleRoot, index);\n\n        require(\n            config[merkleRoot].token.transferFrom(\n                config[merkleRoot].tokensProvider,\n                account,\n                amount\n            )\n        , \"transfer failed\");\n        emit Claimed(account, address(config[merkleRoot].token), amount);\n    }\n}",
  "sourcePath": "/Users/logic/ethereum/merkle-drop/contracts/Waterfall.sol",
  "compiler": {
    "name": "solc",
    "version": "0.8.9+commit.e5eed63a.Emscripten.clang"
  },
  "schemaVersion": "3.4.1",
  "updatedAt": "2021-10-19T10:46:49.661Z",
  "devdoc": {
    "author": "Nuno Axe",
    "details": "Waterfall implementation.",
    "kind": "dev",
    "methods": {
      "claim(uint256,address,uint256,bytes32[])": {
        "details": "Make a single distribuion.",
        "params": {
          "account": "Address entitled to make the claim.",
          "amount": "Number of tokens to transfer.",
          "index": "Position of the leaf in the merkle tree",
          "merkleProofs": "of the tree."
        }
      },
      "isClaimed(bytes32,uint256)": {
        "details": "Check if claim was executed.",
        "params": {
          "index": "Position of the leaf in the merkle tree",
          "merkleRoot": "Top node of a merkle tree structure."
        }
      },
      "newDistribuition(bytes32,address,uint96,uint96)": {
        "details": "Create a new token distribution.",
        "params": {
          "endTime": "Stop accepting claims in the distribuition.",
          "merkleRoot": "Top node of a merkle tree structure.",
          "startTime": "Start accepting claims in the distribuition.",
          "token": "ERC20 compatible token address that will be distribuited."
        }
      }
    },
    "version": 1
  },
  "userdoc": {
    "kind": "user",
    "methods": {
      "claim(uint256,address,uint256,bytes32[])": {
        "notice": "claim data combined with merkleProofs will compute the merkle tree root."
      },
      "newDistribuition(bytes32,address,uint96,uint96)": {
        "notice": "If distribuition is not bound to a time interval, startTime = 0 (zero) and endTime = ype(uint96).max"
      }
    },
    "version": 1
  }
}